:08095900060801020304050673
:10088C00C2B1C2B0D2B6D2B5D2B4A2B582B482B61D
:10089C0040F87F147E001208F1C2B0D2B1A2B5822A
:1008AC00B482B64005E4F50F800FD2B0C2B1A2B548
:1008BC0082B482B64003750F0120B405E4F51080B4
:1008CC000E20B505751001800620B603751002A226
:1008DC00B582B482B650F8E50F75F003A424082550
:0408EC0010F8E6FF1B
:0108F00022E5
:1008F100D3EF9400EE940040147D7A7C00ED1D70DE
:0D090100011CED4C70F7EF1F70E61E80E347
:01090E0022C6
:100923008F80D2A5C2A6D2A77F027E001208F1C291
:02093300A722F9
:100935008F80C2A5C2A6D2A77F027E001208F1C28F
:02094500A722E7
:10090F007F021209357F381209357F0E1209357FA4
:04091F000102093593
:1009470012090F12088C8F0EE50E2430FF120923AF
:0209570080F12D
:03000000020800F3
:0C080000787FE4F6D8FD758110020847EF
:10080C00020947E493A3F8E493A34003F68001F2B2
:10081C0008DFF48029E493A3F85407240CC8C333ED
:10082C00C4540F4420C8834004F456800146F6DFBC
:10083C00E4800B0102040810204080900959E47EEA
:10084C00019360BCA3FF543F30E509541FFEE493B1
:10085C00A360010ECF54C025E060A840B8E493A378
:10086C00FAE493A3F8E493A3C8C582C8CAC583CAA3
:10087C00F0A3C8C582C8CAC583CADFE9DEE780BE5B
:010961000095
:00000001FF
