:10097300D3EF9400EE940040147D7A7C00ED1D705B
:0D098300011CED4C70F7EF1F70E61E80E3C5
:010990002244
:1009BE008F80D2A5C2A6D2A77F027E00120973C273
:0209CE00A7225E
:1009D0008F80C2A5C2A6D2A77F027E00120973C271
:0209E000A7224C
:100950008B088A09890AAB08AA09A90A120991FF1A
:1009600060101209BE7401250AF50AE43509F5097B
:0309700080E422FE
:1009AA007F021209D07F381209D07F0E1209D07F38
:0409BA00010209D05D
:10090900E4F50C1209AA750B407F011209D0E4F530
:100919000CE4FD7F02120897401D050B050CE4FD50
:100929007F0212089750F7E50C641170057FC01219
:1009390009D0AF0B1209BEE50BC3945A40D37FF41B
:070949007E0112097380BF5B
:10080000EF14602E14604C14606A24036003020825
:1008100096EB6401700DA80504088002C333D8FC70
:10082000428022A8057401088002C333D8FCF45228
:100830008022EB6401700DA80504088002C333D840
:10084000FC429022A8057401088002C333D8FCF44E
:10085000529022EB6401700DA80504088002C33396
:10086000D8FC42A022A8057401088002C333D8FC3A
:10087000F452A022EB6401700DA80504088002C3A5
:1008800033D8FC42B022AF05A8077401088002C328
:0708900033D8FCF452B02242
:10089700EF14602214603714604C24037060A805BD
:1008A700E580088002C313D8FC30E0047F01800292
:1008B7007F00AE078048A805E590088002C313D8DB
:1008C700FC30E0047F0180027F00AE078030A8057E
:1008D700E5A0088002C313D8FC30E0047F01800242
:1008E7007F00AE078018AF05A807E5B0088002C3F0
:1008F70013D8FC30E0047F0180027F00AE07EE24AE
:01090700FFF0
:0109080022CC
:030000000209E210
:0C09E200787FE4F6D8FD75810C0209094D
:10099100BB010689828A83E0225002E722BBFE0264
:0909A100E32289828A83E4932297
:00000001FF
