:0400000085EF04F094
:10060000004B65792070726573736564203A200031
:0F0610004D6174726978204B65797061640000E8
:10062000000E0E6EC00E8A6E00D000D000F0815019
:100630001E0B1E0AD8B41FEF03F021EF03F054EF96
:1006400003F081501E0B1C0AD8A429EF03F02BEFF6
:1006500003F02DEF03F0010E0E6E81501E0B1A0AEF
:10066000D8A435EF03F037EF03F039EF03F0020EB3
:100670000E6E81501E0B160AD8A441EF03F043EF13
:1006800003F045EF03F0030E0E6E81501E0B0E0AB1
:10069000D8A44DEF03F04FEF03F051EF03F0040E39
:1006A0000E6E0E50D7EF03F0A00E8A6E00D000D071
:1006B00000F081501E0B1E0AD8B461EF03F063EF07
:1006C00003F095EF03F081501E0B1C0AD8A46BEFCA
:1006D00003F06DEF03F06FEF03F0050E0E6E815027
:1006E0001E0B1A0AD8A477EF03F079EF03F07BEF23
:1006F00003F0060E0E6E81501E0B160AD8A483EF6F
:1007000003F085EF03F087EF03F0070E0E6E8150C4
:100710001E0B0E0AD8A48FEF03F091EF03F051EFF8
:1007200003F0080E0E6E51EF03F0600E8A6E00D0DB
:1007300000D000F081501E0B1E0AD8B4A2EF03F0C7
:10074000A4EF03F0D6EF03F081501E0B1C0AD8A4CF
:10075000ACEF03F0AEEF03F0B0EF03F0090E0E6E56
:1007600081501E0B1A0AD8A4B8EF03F0BAEF03F0B9
:10077000BCEF03F00A0E0E6E81501E0B160AD8A4B1
:10078000C4EF03F0C6EF03F0C8EF03F00B0E0E6EDC
:1007900081501E0B0E0AD8A4D0EF03F0D2EF03F065
:1007A00051EF03F00C0E0E6E51EF03F0000E12002D
:1007B000000E956E949294909494380EABEC04F0E5
:1007C000620E106E660EE82EFED7102EFCD7060EB7
:1007D000ABEC04F0620E106E660EE82EFED7102E03
:1007E000FCD70C0EABEC04F0620E106E660EE82E19
:1007F000FED7102EFCD7010EABEC04F0620E106E8B
:10080000660EE82EFED7102EFCD7800EABEC04F05F
:10081000620E106E660EE82EFED7102EFCD7120068
:10082000000E156E000E146E2DEF04F014501024FF
:10083000126E15501120136E12C0F6FF13C0F7FF91
:100840000800F5509CEC04F0620E126E660EE82E65
:10085000FED7122EFCD7144A152A14501024126EFB
:1008600015501120136E12C0F6FF13C0F7FF0800D9
:10087000F5500009D8A43FEF04F041EF04F016EF63
:1008800004F01200D8EC03F0C1EC04F0100E106E6E
:10089000060E116E10EC04F0C00EABEC04F0010E6D
:1008A000106E060E116E10EC04F06BEC04F0166E78
:1008B0004E0E1618D8B45FEF04F061EF04F055EF58
:1008C00004F0CD0EABEC04F016509CEC04F055EFA8
:1008D00004F000EF00F010EC03F0126E020E106E48
:1008E000450E0F6EAA0EE82EFED70F2EFCD7102E47
:1008F000FAD710EC03F0010E1224D96EDA6A000E5A
:10090000DA22DF50116E11501200740EF66E090ECD
:10091000F76E000EF86E00EE01F010EE0DF009001B
:10092000F5CFEEFFE550E150FAE1000EF86E060E4D
:10093000F76E000142EF04F00F6E0FC08CFF8B8248
:100940008B908B84620E0E6E660EE82EFED70E2EF6
:10095000FCD78B9412000F6E0FC08CFF8B928B9084
:100960008B84620E0E6E660EE82EFED70E2EFCD71E
:100970008B9412004E313233343536373839414298
:010980004333
:0C0982000F0EC16EF19E1F0E936E12004E
:020000040020DA
:08000000FFFFFFFFFFFFFFFF00
:020000040030CA
:0E000000FF021F1FFF8181FF0FC00FE00F40A6
:00000001FF
