:0400000065EF37F081
:106E72009EAA3EEF37F040EF37F039EF37F09E9A97
:106E8200AE501200AC98AC9CAC8AAC84AB88AB9C84
:106E9200AB8E000EB86E810EAF6E000EB06E949C7B
:046EA200948E1200B8
:106EA7000D74657374696E67206F662075617274FF
:106EB7000D007965732069747320776F726B696E43
:106EC700670D00A70EF66E6E0EF76E000EF86E00D9
:106ED700EE27F010EE23F00900F5CFEEFFE550E1C5
:106EE70050FAE1000EF86E00017AEF37F0000E93CA
:106EF7006E20EE27F010EE03F0110EDBCFE3FFE874
:106F070006FCE220EE39F010EE15F0100EDBCFE3B1
:106F1700FFE806FCE2000E816E43EC37F039EC37F0
:106F2700F0266EC6EF37F0000E816E92EF37F00055
:106F37000E816E8A8092EF37F0000E816E8A829200
:106F4700EF37F0000E816E8A8492EF37F0000E81E2
:106F57006E8A8692EF37F0000E816E8A8892EF373D
:106F6700F0000E816E8A8A92EF37F0000E816E8AEA
:106F77008C92EF37F0000E816E8A8E92EF37F08198
:106F87006892EF37F0D00E2624016E026AFF0E02D8
:106F9700220250000AD8B4D3EF37F092EF37F0014E
:106FA70050000AD8B497EF37F0010AD8B49BEF37EF
:106FB700F0030AD8B4A0EF37F0010AD8B4A5EF3729
:106FC700F0070AD8B4AAEF37F0010AD8B4AFEF3701
:106FD700F0030AD8B4B4EF37F0010AD8B4B9EF37E1
:106FE700F00F0AD8B4BEEF37F0010AD8B4C3EF37B1
:096FF700F092EF37F000EF00F01A
:020000040020DA
:08000000FFFFFFFFFFFFFFFF00
:020000040030CA
:0E000000FF021F1EFF0181FF0FC00FE00F4027
:00000001FF
