:10095400D3EF9400EE940040147D7A7C00ED1D707A
:0D096400011CED4C70F7EF1F70E61E80E3E4
:010971002263
:0A097E00C0F9A4B0999282F88090AD
:10092A007508047509D2750A03750BE8AF09AE0894
:10093A00120800E50B150B7002150AD3E50B94009B
:0A094A00E50A6480948050E480FE0A
:100800008E0C8F0D7C037DE812089F747E2FF5827D
:1008100074093EF583E493F5A0C2B07F027E001216
:100820000954D2B0AE0CAF0D7C007D6412089F7CE1
:10083000007D0A12089F747E2DF58274093CF583B1
:10084000E493F5A0C2B17F027E00120954D2B1AE8A
:100850000CAF0D7C007D0A12089F7C007D0A1208F7
:100860009F747E2DF58274093CF583E493F5A0C254
:10087000B27F027E00120954D2B2AE0CAF0D7C00E2
:100880007D0A12089F747E2DF58274093CF583E47D
:0F08900093F5A0C2B37F027E00120954D2B322A7
:0300000002097280
:0C097200787FE4F6D8FD75810D02092A9B
:10089F00C2D5EC30E709B2D5E4C39DFDE49CFCEE74
:1008AF0030E715B2D5E4C39FFFE49EFE1208D5C30F
:1008BF00E49DFDE49CFC80031208D530D507C3E40A
:0608CF009FFFE49EFE22E3
:1008D500BC000BBE0029EF8DF084FFADF022E4CC07
:1008E500F875F008EF2FFFEE33FEEC33FCEE9DECD0
:1008F500984005FCEE9DFE0FD5F0E9E4CEFD22ED16
:10090500F8F5F0EE8420D21CFEADF075F008EF2F5F
:10091500FFED33FD4007985006D5F0F222C398FD50
:050925000FD5F0EA22ED
:00000001FF
