:0400000025EF37F0C1
:106DA00053504920454550524F4D20697320776F0D
:106DB000726B696E6700176E17C0C9FF9EA6E3EF7E
:106DC00036F0E5EF36F0DEEF36F09E96C950120051
:106DD000C650F00B0109C66EC698C78EC78C949436
:106DE0008284949A94889496C68A1200186E18C069
:106DF0008CFF8B928B908B84620E176E660EE82E42
:106E0000FED7172EFCD78B941200186E18C08CFF7B
:106E10008B828B908B84620E176E660EE82EFED7E7
:106E2000172EFCD78B9412008294030EDBEC36F005
:106E30001A50DBEC36F01B50DBEC36F0FF0EDBECCF
:106E400036F01C6E82841C501200A00EF66E6D0E81
:106E5000F76E000EF86E00EE01F010EE16F009006D
:106E6000F5CFEEFFE550E150FAE10001BBEF37F05E
:106E700018C01CF08294060EDBEC36F08284A60E5D
:106E8000E82EFED700D08294020EDBEC36F0000E26
:106E9000DBEC36F01C50DBEC36F01A50DBEC36F055
:106EA0008284820E1B6EDE0EE82EFED71B2EFCD7D0
:106EB000040EDBEC36F01200000E1D6E000E1C6E90
:106EC00074EF37F01C501924D96E1D501A20DA6E59
:106ED000DF5005EC37F0620E1B6E660EE82EFED713
:106EE0001B2EFCD71C4A1D2A1C501924D96E1D507C
:106EF0001A20DA6EDF50D8A480EF37F082EF37F037
:106F000062EF37F01200000E956E94929490949474
:106F1000380EF6EC36F0620E196E660EE82EFED7CD
:106F2000192EFCD7060EF6EC36F0620E196E660EC0
:106F3000E82EFED7192EFCD70C0EF6EC36F0620EBA
:106F4000196E660EE82EFED7192EFCD7010EF6EC50
:106F500036F0620E196E660EE82EFED7192EFCD79B
:106F6000800EF6EC36F0620E196E660EE82EFED735
:106F7000192EFCD7120083EC37F0010E196E000EAB
:106F80001A6E5CEC37F0C00EF6EC36F0E8EC36F03A
:106F9000010E196E230E186E4F0E1A6E38EC37F074
:106FA000020E196E000E186E540E1A6E38EC37F081
:106FB000030E196E000E186E4C0E1A6E38EC37F078
:106FC000010E196E230E186E14EC37F01E6E1E5053
:106FD00005EC37F0020E196E000E186E14EC37F047
:106FE0001E6E1E5005EC37F0030E196E000E186E63
:106FF00014EC37F01E6E1E5005EC37F000EF00F079
:020000040020DA
:08000000FFFFFFFFFFFFFFFF00
:020000040030CA
:0E000000FF021F1FFF8181FF0FC00FE00F40A6
:00000001FF
