:100C6500101A3132330834353630373839302A30B6
:020C7500230D4D
:100A5100C2B3C2B2C2B1C2B0D2B7D2B6D2B5D2B4A9
:100A6100A2B582B482B682B740F67F147E00120C22
:100A710033C2B0D2B1D2B2D2B3A2B582B482B682FD
:100A8100B74005E4F5138043D2B0C2B1D2B2D2B3BC
:100A9100A2B582B482B682B74005751301802CD20B
:100AA100B0D2B1C2B2D2B3A2B582B482B682B740DB
:100AB100057513028015D2B0D2B1D2B2C2B3A2B5BC
:100AC10082B482B682B7400375130320B405E4F5FE
:100AD10014801620B505751401800E20B605751415
:100AE10002800620B703751403A2B582B482B682D0
:100AF100B750F6E51325E025E0241A2514F8E6FFA2
:010B010022D1
:100C3300D3EF9400EE940040147D7A7C00ED1D7098
:0D0C4300011CED4C70F7EF1F70E61E80E302
:010C50002281
:100C78008F80D2A5C2A6D2A77F027E00120C33C2F3
:020C8800A722A1
:100C8A008F80C2A5C2A6D2A77F027E00120C33C2F1
:020C9A00A7228F
:100C10008B178A188919AB17AA18A919120A38FF55
:100C20006010120C7874012519F519E43518F518BF
:030C300080E4223B
:100C51007F02120C8A7F38120C8A7F0E120C8A7F57
:040C610001020C8AF6
:100B8E00456E7465722050617373636F64650043C4
:100B9E004845434B494E472E2E0050415353434F29
:100BAE0044450049532052494748540057454C4349
:100BBE004F4D450049532057524F4E4700545259FE
:100BCE0020414741494E00312E4348414E47452072
:0D0BDE0050415353574F52440031323334CD
:10080000E4F509780F7C00FD7BFF7A0B79E7FE7F2A
:1008100004120A12120C517BFF7A0B798E120C1003
:100820007FC0120C8A120A518F08EF640870077F8C
:1008300004120C8A15097F06120C8AE508640D6003
:100840000302091F7F01120C8A7F0C120C8A7BFFA6
:100850007A0B799D120C107FE87E03120C337F8097
:10086000120C8AE4FFEFFD7C00C394047480948032
:100870005011740F2FF8E6FE740A2FF8E6B5060340
:100880000F80E2ED64044C7F017048120C8A7BFFFC
:100890007A0B79A8120C107FC0120C8A7BFF7A0B9E
:1008A00079B1120C107FE87E03120C337F01120C19
:1008B0008A7BFF7A0B79BA120C107FE87E03120C48
:1008C000337F01120C8AAF087E00AD0E7C00120B44
:1008D000EB804C120C8A7BFF7A0B79A8120C107FEC
:1008E000C0120C8A7BFF7A0B79C2120C107FF47E47
:1008F00001120C337F01120C8A7BFF7A0B79CB1229
:100900000C107FF47E01120C337F01120C8AE4F587
:10091000097BFF7A0B798E120C107FC0120C8AAF04
:1009200008EF640D7003020825EF640870030208E5
:1009300025740A2509F8A6087F2A120C78050902F1
:02094000082588
:100BEB008E138F148C158D167BFF7A0B79D5120C07
:100BFB0010E514640D4513700B851315851416AF92
:050C0B0016120C782216
:03000000020B02EE
:0C0B0200787FE4F6D8FD758129020B49CC
:10094200E709F608DFFA8046E709F208DFFA803E97
:1009520088828C83E709F0A3DFFA8032E309F60884
:10096200DFFA8078E309F208DFFA807088828C83EC
:10097200E309F0A3DFFA806489828A83E0A3F608A0
:10098200DFFA805889828A83E0A3F208DFFA804C7A
:1009920080D280FA80C680D4806980F28033801051
:1009A20080A680EA809A80A880DA80E280CA8033BA
:1009B20089828A83ECFAE493A3C8C582C8CCC58332
:1009C200CCF0A3C8C582C8CCC583CCDFE9DEE78002
:1009D2000D89828A83E493A3F608DFF9ECFAA9F081
:1009E200EDFB2289828A83ECFAE0A3C8C582C8CCD7
:1009F200C583CCF0A3C8C582C8CCC583CCDFEADEF0
:100A0200E880DB89828A83E493A3F208DFF980CC51
:100A120088F0EF60010E4E60C388F0ED2402B4044A
:100A22000050B9F582EB2402B4040050AF232345F1
:060A32008223900992737B
:100A3800BB010689828A83E0225002E722BBFE02BC
:090A4800E32289828A83E49322EF
:100B0E00020800E493A3F8E493A34003F68001F2F5
:100B1E0008DFF48029E493A3F85407240CC8C333E8
:100B2E00C4540F4420C8834004F456800146F6DFB7
:100B3E00E4800B0102040810204080900C65E47ED6
:100B4E00019360BCA3FF543F30E509541FFEE493AC
:100B5E00A360010ECF54C025E060A840B8E493A373
:100B6E00FAE493A3F8E493A3C8C582C8CAC583CA9E
:100B7E00F0A3C8C582C8CAC583CADFE9DEE780BE56
:010C7700007C
:00000001FF
