:100CBD001008313233083435360A373839302A3096
:020CCD00230DF5
:100ABD00C2B3C2B2C2B1C2B0D2B7D2B6D2B5D2B43D
:100ACD00A2B582B482B682B740F67F147E00120CB6
:100ADD008BC2B0D2B1D2B2D2B3A2B582B482B68239
:100AED00B74005E4F5258043D2B0C2B1D2B2D2B33E
:100AFD00A2B582B482B682B74005752501802CD28D
:100B0D00B0D2B1C2B2D2B3A2B582B482B682B7406E
:100B1D00057525028015D2B0D2B1D2B2C2B3A2B53D
:100B2D0082B482B682B7400375250320B405E4F57F
:100B3D0026801620B505752601800E20B605752672
:100B4D0002800620B703752603A2B582B482B68251
:100B5D00B750F6E52525E025E024082526F8E6FF23
:010B6D002265
:100C8B00D3EF9400EE940040147D7A7C00ED1D7040
:0D0C9B00011CED4C70F7EF1F70E61E80E3AA
:010CA8002229
:100CD0008F80D2A5C2A6D2A77F027E00120C8BC243
:020CE000A72249
:100CE2008F80C2A5C2A6D2A77F027E00120C8BC241
:020CF200A72237
:100C68008B258A268927AB25AA26A927120AA4FF3D
:100C78006010120CD074012527F527E43526F526D7
:030C880080E422E3
:100CA9007F02120CE27F38120CE27F0E120CE27FF7
:040CB90001020CE246
:100BFA00456E7465722050617373636F646500316A
:100C0A002E50415353574F5244204348414E474573
:100C1A000050415353574F52440055504441544594
:100C2A004400434845434B494E472E2E00504153FA
:100C3A0053434F44450049532052494748540057AB
:100C4A00454C434F4D450049532057524F4E47009C
:0E0C5A0054525920414741494E003132333443
:10080000E4F519F51B78217C00FD7BFF7A0C7964F7
:10081000FE7F04120A7E120CA97BFF7A0B79FA1272
:100820000C687FC0120CE2120ABD8F18EF640A70C8
:1008300066E51B64017060F5197BFF7A0C7909127B
:100840000C68120ABD8F1AEF640D601DEF6408601A
:10085000187FC0120CE2E51A2430FF74212519F824
:10086000A607AF1A120CD00519E51A640D70D37FD4
:1008700001120CE27BFF7A0C791B120C687FC0120C
:100880000CE27BFF7A0C7924120C687FF47E011253
:100890000C8B7F01120CE2120ABD8F18EF640870F6
:1008A000077F04120CE215197F06120CE2E51864AA
:1008B0000D600302098B7F01120CE27F0C120CE227
:1008C0007BFF7A0C792C120C687FE87E03120C8B6C
:1008D0007F80120CE2E4FFEFFD7C00C3940474807F
:1008E0009480501174212FF8E6FE741C2FF8E6B5A1
:1008F00006030F80E2ED64044C703F751B017F011D
:10090000120CE27BFF7A0C7937120C687FC0120C54
:10091000E27BFF7A0C7940120C687FE87E03120CB0
:100920008B7F01120CE27BFF7A0C7949120C687FF5
:10093000E87E03120C8B7F01804EE4F51B7F0112D1
:100940000CE27BFF7A0C7937120C687FC0120CE244
:100950007BFF7A0C7951120C687FF47E01120C8BAC
:100960007F01120CE27BFF7A0C795A120C687FF43B
:100970007E01120C8B7F01120CE2E4F5197BFF7AE9
:100980000B79FA120C687FC0120CE2AF18EF640DFD
:100990007003020827EF64087003020827741C25FF
:0E09A00019F8A6187F2A120CD0051902082794
:03000000020B6E82
:0C0B6E00787FE4F6D8FD758127020BB5F6
:1009AE00E709F608DFFA8046E709F208DFFA803E2B
:1009BE0088828C83E709F0A3DFFA8032E309F60818
:1009CE00DFFA8078E309F208DFFA807088828C8380
:1009DE00E309F0A3DFFA806489828A83E0A3F60834
:1009EE00DFFA805889828A83E0A3F208DFFA804C0E
:1009FE0080D280FA80C680D4806980F280338010E5
:100A0E0080A680EA809A80A880DA80E280CA80334D
:100A1E0089828A83ECFAE493A3C8C582C8CCC583C5
:100A2E00CCF0A3C8C582C8CCC583CCDFE9DEE78095
:100A3E000D89828A83E493A3F608DFF9ECFAA9F014
:100A4E00EDFB2289828A83ECFAE0A3C8C582C8CC6A
:100A5E00C583CCF0A3C8C582C8CCC583CCDFEADE83
:100A6E00E880DB89828A83E493A3F208DFF980CCE5
:100A7E0088F0EF60010E4E60C388F0ED2402B404DE
:100A8E000050B9F582EB2402B4040050AF23234585
:060A9E0082239009FE73A3
:100AA400BB010689828A83E0225002E722BBFE0250
:090AB400E32289828A83E4932283
:100B7A00020800E493A3F8E493A34003F68001F289
:100B8A0008DFF48029E493A3F85407240CC8C3337C
:100B9A00C4540F4420C8834004F456800146F6DF4B
:100BAA00E4800B0102040810204080900CBDE47E12
:100BBA00019360BCA3FF543F30E509541FFEE49340
:100BCA00A360010ECF54C025E060A840B8E493A307
:100BDA00FAE493A3F8E493A3C8C582C8CAC583CA32
:100BEA00F0A3C8C582C8CAC583CADFE9DEE780BEEA
:010CCF000024
:00000001FF
