:100FAD001008313233083435360A373839302A30A3
:020FBD00230D02
:100BA000C2B3C2B2C2B1C2B0D2B7D2B6D2B5D2B459
:100BB000A2B582B482B682B740F67F147E00120FCF
:100BC00038C2B0D2B1D2B2D2B3A2B582B482B682A8
:100BD000B74005E4F53A8043D2B0C2B1D2B2D2B345
:100BE000A2B582B482B682B74005753A01802CD294
:100BF000B0D2B1C2B2D2B3A2B582B482B682B7408B
:100C000005753A028015D2B0D2B1D2B2C2B3A2B544
:100C100082B482B682B74003753A0320B405E4F586
:100C20003B801620B505753B01800E20B605753B4F
:100C300002800620B703753B03A2B582B482B68258
:100C4000B750F6E53A25E025E02408253BF8E6FF15
:010C50002281
:100F3800D3EF9400EE940040147D7A7C00ED1D7090
:0D0F4800011CED4C70F7EF1F70E61E80E3FA
:010F55002279
:0B0FE400D2A1D2A0D2A1D2A0C2A022B4
:090FFA00C2A1C2A0D2A1D2A02222
:100EF4007E07EE3395E0C3648094804014C2A1A8B9
:100F040006EF088002C313D8FC1392A0D2A11E805E
:010F1400E1FB
:010F150022B9
:100E8300E4FF7E07EE3395E0C3648094804017D27D
:100E9300A130A00DA8067401088002C333D8FC4218
:060EA30007C2A11E80DE63
:010EA9002226
:100F6F00C2A1D2A0D2A10000000020A004C2A1C340
:050F7F0022D2A1D322E3
:07100C00C2A1D2A0D2A12273
:060E23008F3A8D3B8B3C71
:100E2900120FE4AF3A120EF4120F6F92002000175E
:100E3900AF3B120EF4120F6F920020000AAF3C1262
:0A0E49000EF4120F6F9200020FFA70
:040D9F008F3C8D3DBB
:100DA300120FE4AF3C120EF4120F6F9200200028D2
:100DB300AF3D120EF4120F6F920020001B120FE4CE
:100DC300E53C4401FF120EF4120F6F92002000085D
:0D0DD300120E838F3E12100C120FFAAF3E6D
:010DE00022F0
:100FC0008F80D2A5C2A6D2A77F027E00120F38C2A0
:020FD000A72256
:100FD2008F80C2A5C2A6D2A77F027E00120F38C29E
:020FE200A72244
:100ED1008B3A8A3B893CAB3AAA3BA93C120F56FF9D
:100EE1006010120FC07401253CF53CE4353BF53B25
:030EF10080E42278
:100F99007F02120FD27F38120FD27F0E120FD27F2B
:040FA90001020FD260
:100CDD0057454C434F4D450043555252454E5420B8
:100CED0054494D45004C4F47494E00454E544552D1
:100CFD000050415353574F524400535543434553AE
:100D0D0053004641494C454400414444204F4E5FF9
:100D1D0054494D450048483A4D4D003A004F4E5FFD
:100D2D0054494D45005550444154454400414444B7
:100D3D00204F46465F54494D45004F46465F544946
:030D4D004D450011
:10080000E4F522F523F527F52CF52D120F99E4FBDD
:100810007D027FD0120E237B107D017FD0120E232C
:100820007F0C120FD2C2A2E52D701A7F01120FD2D7
:100830007BFF7A0C79DD120ED17FBC7E02120F385D
:100840007F01120FD27D027FD0120D9F8F257D0177
:100850007FD0120D9F8F26E525C4540F2430F52F2D
:10086000E525540F2430F52EE526C4540F2430F529
:1008700031E526540F2430F5307D057FA0120DE1BF
:100880008F327F647E00120F387D047FA0120DE14D
:100890008F357F647E00120F387D077FA0120DE137
:1008A0008F337F647E00120F387D067FA0120DE12A
:1008B0008F347F647E00120F387D097FA0120DE116
:1008C0008F367F647E00120F387D087FA0120DE105
:1008D0008F397F647E00120F387D0B7FA0120DE1EF
:1008E0008F377F647E00120F387D0A7FA0120DE1E2
:1008F0008F387F647E00120F38E530C3953750047F
:10090000D2A48002C2A4120BA08F27EF640D70182E
:100910007F01120FD27BFF7A0C79E5120ED1AD2642
:10092000AF25120D50020827E52764086003020A6C
:100930005C7F01120FD27BFF7A0C79F2120ED17F0D
:10094000F47E01120F387F01120FD27BFF7A0C79EF
:10095000F8120ED17FF47E01120F387F01120FD2F0
:100960007BFF7A0C79FE120ED17FF47E01120F38D4
:100970007FC0120FD27FF47E01120F38E4F526C338
:10098000E526940474809480502A120BA0EFFD6435
:1009900008700AED640A7005ED6430601374282550
:1009A00026F8A6077F2A120FC07FF47E01120F38A7
:1009B000052680CB7F01120FD27B31E4FD7FA01290
:1009C0000E537FF47E01120F387B327D017FA0121F
:1009D0000E537FF47E01120F387B337D027FA0120D
:1009E0000E537FF47E01120F387B347D037FA012FB
:1009F0000E537FF47E01120F38E4F521D3E52194E4
:100A000003748094805021AD217FA0120DE18F27C7
:100A10007FF47E01120F3874282522F8E6B52702EC
:100A2000052C0522052180D4E52C64047016752D53
:100A3000017F01120FD27BFF7A0D7907120ED1D2FE
:100A4000A2020827E4F52D7BFF7A0D790F120ED153
:100A50007F2C7E01120F38C2A2020827E527640A04
:100A60006003020AFEE52D64016003020AFE7F01B5
:100A7000120FD27BFF7A0D7916120ED17FF47E0110
:100A8000120F387F01120FD27BFF7A0D7922120EDE
:100A9000D17FF47E01120F387FC0120FD27521046E
:100AA000AF217E00D3EF9407748094805031EF64BF
:100AB0000670097BFF7A0D7928120ED1120BA08FD8
:100AC00024120FC07FF47E01120F38AB24AD217FBA
:100AD000A0120E537FF47E01120F38052180C17FD2
:100AE00001120FD27BFF7A0D792A120ED17FC0122C
:100AF0000FD27BFF7A0D7932120ED1020827E5273B
:100B000064306003020827E52D64016003020827B2
:100B10007F01120FD27BFF7A0D793A120ED17FF44A
:100B20007E01120F387F01120FD27BFF7A0D7922DE
:100B3000120ED17FF47E01120F387FC0120FD275D2
:100B40002108AF217E00D3EF940B74809480503144
:100B5000EF640A70097BFF7A0D7928120ED1120B0F
:100B6000A08F24120FC07FF47E01120F38AB24AD8A
:100B7000217FA0120E537FF47E01120F38052180D1
:100B8000C17F01120FD27BFF7A0D7947120ED17F00
:100B9000C0120FD27BFF7A0D7932120ED1020827D4
:100D50008F3A8D3B7F0C120FD27F01120FD27D0292
:100D60007FD0120D9F8F3A7D017FD0120D9F8F3B58
:100D7000E53AC4540F2430FF120FC0E53A540F2453
:100D800030FF120FC07F3A120FC0E53BC4540F244E
:0F0D900030FF120FC0E53B540F2430FF020FC09D
:0B0FEF00D291D290D291D290C29022F9
:09100300C291C290D291D2902258
:100F16007E07EE3395E0C3648094804014C291A8A6
:100F260006EF088002C313D8FC139290D2911E805C
:010F3600E1D9
:010F37002297
:100EAA00E4FF7E07EE3395E0C3648094804017D256
:100EBA009130900DA8067401088002C333D8FC4211
:060ECA0007C2911E80DE4C
:010ED00022FF
:100F8400C291D290D29100000000209004C291C37B
:050F940022D291D322DE
:07101300C291D290D291229C
:060E53008F3A8D3B8B3C41
:100E5900120FEFAF3A120F16120F849200200017EB
:100E6900AF3B120F16120F84920020000AAF3C12FA
:0A0E79000F16120F849200021003FE
:040DE1008F3A8D3B7D
:100DE500120FEFAF3A120F16120F8492002000284F
:100DF500AF3B120F16120F84920020001B120FEF4B
:100E0500E53A4401FF120F16120F849200200008E4
:0D0E1500120EAA8F3C121013121003AF3CF6
:010E220022AD
:03000000020C519E
:0C0C5100787FE4F6D8FD75813E020C9817
:100F5600BB010689828A83E0225002E722BBFE0299
:090F6600E32289828A83E49322CC
:100C5D00020800E493A3F8E493A34003F68001F2A5
:100C6D0008DFF48029E493A3F85407240CC8C33398
:100C7D00C4540F4420C8834004F456800146F6DF67
:100C8D00E4800B0102040810204080900FADE47E3B
:100C9D00019360BCA3FF543F30E509541FFEE4935C
:100CAD00A360010ECF54C025E060A840B8E493A323
:100CBD00FAE493A3F8E493A3C8C582C8CAC583CA4E
:100CCD00F0A3C8C582C8CAC583CADFE9DEE780BE06
:010FBF000031
:00000001FF
