:100FCA001008313233083435360A373839302A3086
:020FDA00230DE5
:100C2F00C2B3C2B2C2B1C2B0D2B7D2B6D2B5D2B4C9
:100C3F00A2B582B482B682B740F67F147E00120F3F
:100C4F006AC2B0D2B1D2B2D2B3A2B582B482B682E6
:100C5F00B74005E4F53B8043D2B0C2B1D2B2D2B3B4
:100C6F00A2B582B482B682B74005753B01802CD203
:100C7F00B0D2B1C2B2D2B3A2B582B482B682B740FB
:100C8F0005753B028015D2B0D2B1D2B2C2B3A2B5B4
:100C9F0082B482B682B74003753B0320B405E4F5F6
:100CAF003C801620B505753C01800E20B605753CBD
:100CBF0002800620B703753C03A2B582B482B682C8
:100CCF00B750F6E53B25E025E02408253CF8E6FF84
:010CDF0022F2
:100F6A00D3EF9400EE940040147D7A7C00ED1D705E
:0D0F7A00011CED4C70F7EF1F70E61E80E3C8
:010F87002247
:0B100E00D2A1D2A0D2A1D2A0C2A02289
:09101900C2A1C2A0D2A1D2A02202
:100F48007E07EE3395E0C3648094804014C2A1A864
:100F580006EF088002C313D8FC1392A0D2A11E800A
:010F6800E1A7
:010F69002265
:100EFE00E4FF7E07EE3395E0C3648094804017D202
:100F0E00A130A00DA8067401088002C333D8FC429C
:060F1E0007C2A11E80DEE7
:010F240022AA
:100FA100C2A1D2A0D2A10000000020A004C2A1C30E
:050FB10022D2A1D322B1
:07102200C2A1D2A0D2A1225D
:060ECE008F3B8D3C8B3DC3
:100ED40012100EAF3B120F48120FA1920020001700
:100EE400AF3C120F48120FA1920020000AAF3D122E
:0A0EF4000F48120FA192000210191E
:040E8C008F3E8D3FC9
:100E900012100EAF3E120F48120FA1920020002830
:100EA000AF3F120F48120FA1920020001B12100E2C
:100EB000E53E4401FF120F48120FA19200200008E6
:0D0EC000120EFE8F40121022121019AF40CA
:010ECD002202
:100FDD008F80D2A5C2A6D2A77F027E00120F6AC251
:020FED00A72239
:100FEF008F80C2A5C2A6D2A77F027E00120F6AC24F
:020FFF00A72227
:100F25008B3E8A3F8940AB3EAA3FA940120F88FFFE
:100F35006010120FDD74012540F540E4353FF53FA3
:030F450080E42223
:100FB6007F02120FEF7F38120FEF7F0E120FEF7FB7
:040FC60001020FEF26
:0D10010043555252454E542054494D450070
:100E0F008F3B8D3C8B3D7F01120FEF7BFF7A10796B
:100E1F0001120F257FC0120FEF7D027FD0120E8CB3
:100E2F008F3B7D017FD0120E8C8F3CE4FD7FD01263
:100E3F000E8C8F3DE53BC4540F2430FF120FDDE5C0
:100E4F003B540F2430FF120FDD7F3A120FDDE53CCC
:100E5F00C4540F2430FF120FDDE53C540F2430FF34
:100E6F00120FDD7F3A120FDDE53DC4540F2430FF22
:0D0E7F00120FDDE53D540F2430FF020FDDA2
:100CE00057454C434F4D45004C4F47494E20544FBC
:100CF00000555044415445004F4E20414E44204F32
:100D000046462054494D45005052455353202F200C
:100D1000544F204C4F47494E004C4F47494E0045D9
:100D20004E5445520050415353574F52440053556F
:100D30004343455353004641494C454400414444D4
:100D4000204F4E5F54494D450048483A4D4D003ABA
:100D5000004F4E5F54494D45005550444154454461
:100D6000004C4F47494E2046495253540041444499
:100D7000204F46465F54494D45004F46465F544913
:030D80004D4500DE
:10080000E4F522F523F528F52DF52EC2A4C2A21297
:100810000FB6E4FB7D027FD0120ECE7B107D017FF0
:10082000D0120ECE7B55E4FD7FD0120ECE7B31E48C
:10083000FD7FA0120ECE7F647E00120F6A7B327D98
:10084000017FA0120ECE7F647E00120F6A7B337D83
:10085000027FA0120ECE7F647E00120F6A7B347D71
:10086000037FA0120ECE7F647E00120F6A7F0C12EF
:100870000FEF7F01120FEF7BFF7A0C79E0120F254B
:100880007FF47E01120F6A7F01120FEF7BFF7A0C5B
:1008900079E8120F257FF47E01120F6A7FC0120FD4
:1008A000EF7BFF7A0C79F1120F257FF47E01120F96
:1008B0006A7F01120FEF7BFF7A0C79F8120F257F08
:1008C000F47E01120F6A7FC0120FEF7BFF7A0D7961
:1008D00008120F25020B24E528642A7003020B2C52
:1008E000E52824FC7003020B1624FA70030209E9C0
:1008F00024DA7003020A7124286003020B247F01AA
:10090000120FEF7BFF7A0D7919120F257FF47E010C
:10091000120F6A7F01120FEF7BFF7A0D791F120F02
:10092000257FF47E01120F6A7F01120FEF7BFF7AA1
:100930000D7925120F257FF47E01120F6A7FC012F8
:100940000FEF7FF47E01120F6AE4F526C3E52694CB
:100950000474809480502A120C2FEFFD6408700AF2
:10096000ED640A7005ED6430601374292526F8A63D
:10097000077F2A120FDD7FF47E01120F6A052680A1
:10098000CBE4F521D3E5219403748094805021AD0C
:10099000217FA0120E8C8F287F2C7E01120F6A748B
:1009A000292522F8E6B52802052D0522052180D447
:1009B000E52D64047016752E017F01120FEF7BFF89
:1009C0007A0D792E120F25D2A2020B24E4F52E7F88
:1009D00001120FEF7BFF7A0D7936120F257F2C7EE7
:1009E00001120F6AC2A2020B24E52E640160030209
:1009F0000B067F01120FEF7BFF7A0D793D120F2559
:100A00007FF47E01120F6A7F01120FEF7BFF7A0DD8
:100A10007949120F257FF47E01120F6A7FC0120FF1
:100A2000EF752104AF217E00D3EF9407748094808A
:100A30005031EF640670097BFF7A0D794F120F2554
:100A4000120C2F8F24120FDD7FF47E01120F6AAB80
:100A500024AD217FA0120ECE7FF47E01120F6A0515
:100A60002180C17F01120FEF7BFF7A0D7951020ABD
:100A7000F6E52E64016003020B067F01120FEF7B87
:100A8000FF7A0D796D120F257FF47E01120F6A7FB8
:100A900001120FEF7BFF7A0D7949120F257FF47E4B
:100AA00001120F6A7FC0120FEF752108AF217E007F
:100AB000D3EF940B748094805031EF640A70097BFB
:100AC000FF7A0D794F120F25120C2F8F24120FDD94
:100AD0007FF47E01120F6AAB24AD217FA0120ECEEF
:100AE0007FF47E01120F6A052180C17F01120FEF92
:100AF0007BFF7A0D797A120F257FC0120FEF7BFFF3
:100B00007A0D7959800B7F01120FEF7BFF7A0D79F7
:100B100061120F25800E7F01120FEFAB27AD26AFBC
:100B200025120E0F120C2F8F280208D7C2A27F01A8
:100B3000120FEF7D027FD0120E8C8F257D017FD0AA
:100B4000120E8C8F26AB27AD26AF25120E0FE52592
:100B5000C4540F2430F530E525540F2430F52FE52B
:100B600026C4540F2430F532E526540F2430F531D5
:100B70007D047FA0120E8C8F367F647E00120F6A78
:100B80007D057FA0120E8C8F337F647E00120F6A6A
:100B90007D067FA0120E8C8F357F647E00120F6A57
:100BA0007D077FA0120E8C8F347F647E00120F6A47
:100BB0007D097FA0120E8C8F377F647E00120F6A32
:100BC0007D087FA0120E8C8F3A7F647E00120F6A20
:100BD0007D0B7FA0120E8C8F387F647E00120F6A0F
:100BE0007D0A7FA0120E8C8F397F647E00120F6AFF
:100BF000E536B53011E533B52F0CE535B53207E5EF
:100C000034B53102D2A4E53A65306003020B33E516
:100C100037652F6003020B33E53965326003020B41
:0F0C200033E53865316003020B33C2A4020B3396
:03000000020D836B
:0C0D8300787FE4F6D8FD758140020DCAAF
:100F8800BB010689828A83E0225002E722BBFE0267
:090F9800E32289828A83E493229A
:100D8F00020800E493A3F8E493A34003F68001F272
:100D9F0008DFF48029E493A3F85407240CC8C33365
:100DAF00C4540F4420C8834004F456800146F6DF34
:100DBF00E4800B0102040810204080900FCAE47EEB
:100DCF00019360BCA3FF543F30E509541FFEE49329
:100DDF00A360010ECF54C025E060A840B8E493A3F0
:100DEF00FAE493A3F8E493A3C8C582C8CAC583CA1B
:100DFF00F0A3C8C582C8CAC583CADFE9DEE780BED3
:010FDC000014
:00000001FF
