:100FDD001008313233083435360A373839302A3073
:020FED00230DD2
:100C2100C2B3C2B2C2B1C2B0D2B7D2B6D2B5D2B4D7
:100C3100A2B582B482B682B740F67F147E00120F4D
:100C410068C2B0D2B1D2B2D2B3A2B582B482B682F6
:100C5100B74005E4F53C8043D2B0C2B1D2B2D2B3C1
:100C6100A2B582B482B682B74005753C01802CD210
:100C7100B0D2B1C2B2D2B3A2B582B482B682B74009
:100C810005753C028015D2B0D2B1D2B2C2B3A2B5C1
:100C910082B482B682B74003753C0320B405E4F503
:100CA1003D801620B505753D01800E20B605753DC8
:100CB10002800620B703753D03A2B582B482B682D5
:100CC100B750F6E53C25E025E02408253DF8E6FF90
:010CD1002200
:100F6800D3EF9400EE940040147D7A7C00ED1D7060
:0D0F7800011CED4C70F7EF1F70E61E80E3CA
:010F85002249
:0B101400D2A1D2A0D2A1D2A0C2A02283
:09101F00C2A1C2A0D2A1D2A022FC
:100F46007E07EE3395E0C3648094804014C2A1A866
:100F560006EF088002C313D8FC1392A0D2A11E800C
:010F6600E1A9
:010F67002267
:100EFC00E4FF7E07EE3395E0C3648094804017D204
:100F0C00A130A00DA8067401088002C333D8FC429E
:060F1C0007C2A11E80DEE9
:010F220022AC
:100F9F00C2A1D2A0D2A10000000020A004C2A1C310
:050FAF0022D2A1D322B3
:07102800C2A1D2A0D2A12257
:060ECC008F3C8D3D8B3EC2
:100ED200121014AF3C120F46120F9F9200200017FF
:100EE200AF3D120F46120F9F920020000AAF3E1232
:0A0EF2000F46120F9F920002101F1E
:040E8A008F408D41C7
:100E8E00121014AF40120F46120F9F92002000282E
:100E9E00AF41120F46120F9F920020001B1210142A
:100EAE00E5404401FF120F46120F9F9200200008EA
:0D0EBE00120EFC8F4212102812101FAF42BE
:010ECB002204
:100FF0008F80D2A5C2A6D2A77F027E00120F68C240
:02100000A72225
:101002008F80C2A5C2A6D2A77F027E00120F68C23D
:02101200A72213
:100F23008B408A418942AB40AA41A942120F86FFF6
:100F33006010120FF074012542F542E43541F5418A
:030F430080E42225
:100FC9007F021210027F381210027F0E1210027F68
:040FD90001021002FF
:100CD20057454C434F4D45004C4F47494E20544FCA
:100CE20000555044415445004F4E20414E44204F40
:100CF20046462054494D45005052455353202F201B
:100D0200544F204C4F47494E004C4F47494E0045E7
:100D12004E5445520050415353574F52440053557D
:100D22004343455353004641494C454400414444E2
:100D3200204F4E5F54494D450048483A4D4D003AC8
:100D4200004F4E5F54494D4500555044415445446F
:100D5200004C4F47494E20464952535400414444A7
:100D6200204F46465F54494D45004F46465F544921
:030D72004D4500EC
:10080000E4F522F523F528F52DF52EF52FC2A4C227
:10081000A2120FC97B31E4FD7FA0120ECC7F647E53
:1008200000120F687B327D017FA0120ECC7F647EA8
:1008300000120F687B337D027FA0120ECC7F647E96
:1008400000120F687B347D037FA0120ECC7F647E84
:1008500000120F687F0C1210027F011210027BFF42
:100860007A0C79D2120F237FF47E01120F687F0178
:100870001210027BFF7A0C79DA120F237FF47E01CB
:10088000120F687FC01210027BFF7A0C79E3120FFF
:10089000237FF47E01120F687F011210027BFF7A22
:1008A0000C79EA120F237FF47E01120F687FC012C9
:1008B00010027BFF7A0C79FA120F23020B0EE52847
:1008C000642A7003020B16E52824FC7003020AFD5B
:1008D00024FA70030209D024DA7003020A5824288B
:1008E0006003020B0E7F011210027BFF7A0D790B61
:1008F000120F237FF47E01120F687F011210027B1A
:10090000FF7A0D7911120F237FF47E01120F687F99
:10091000011210027BFF7A0D7917120F237FF47EEC
:1009200001120F687FC01210027FF47E01120F685F
:10093000E4F526C3E526940474809480502A120CB2
:1009400021EFFD6408700AED640A7005ED64306003
:100950001374292526F8A6077F2A120FF07FF47E4C
:1009600001120F68052680CBE4F521D3E52194031D
:10097000748094805021AD217FA0120E8A8F287F31
:100980002C7E01120F6874292522F8E6B52802058D
:100990002D0522052180D4E52D64047016752E01E5
:1009A0007F011210027BFF7A0D7920120F23D2A251
:1009B000020B0EE4F52E7F011210027BFF7A0D79F7
:1009C00028120F237F2C7E01120F68C2A2020B0E89
:1009D000E52E64016003020AED7F011210027BFF25
:1009E0007A0D792F120F237FF47E01120F687F0199
:1009F0001210027BFF7A0D793B120F237FF47E01E8
:100A0000120F687FC0121002752104AF217E00D33F
:100A1000EF9407748094805031EF640670097BFF77
:100A20007A0D7941120F23120C218F24120FF07FBF
:100A3000F47E01120F68AB24AD217FA0120ECC7F93
:100A4000F47E01120F68052180C17F011210027B24
:100A5000FF7A0D7943020ADDE52E64016003020A84
:100A6000ED7F011210027BFF7A0D795F120F237F59
:100A7000F47E01120F687F011210027BFF7A0D795C
:100A80003B120F237FF47E01120F687FC012100209
:100A9000752108AF217E00D3EF940B7480948050B1
:100AA00031EF640A70097BFF7A0D7941120F23122E
:100AB0000C218F24120FF07FF47E01120F68AB24FB
:100AC000AD217FA0120ECC7FF47E01120F680521AC
:100AD00080C17F011210027BFF7A0D796C120F2307
:100AE0007FC01210027BFF7A0D794B800B7F0112C1
:100AF00010027BFF7A0D7953120F2380117F0112B0
:100B00001002852F3FAB27AD26AF25120E01120C28
:100B1000218F280208BEC2A27F011210027D027F2F
:100B2000D0120E8A8F257D017FD0120E8A8F2685E6
:100B30002F3FAB27AD26AF25120E01E525C4540F7C
:100B40002430F531E525540F2430F530E526C45422
:100B50000F2430F533E526540F2430F5327D047F21
:100B6000A0120E8A8F377F647E00120F687D057F8A
:100B7000A0120E8A8F347F647E00120F687D067F7C
:100B8000A0120E8A8F367F647E00120F687D077F69
:100B9000A0120E8A8F357F647E00120F687D097F58
:100BA000A0120E8A8F387F647E00120F687D087F46
:100BB000A0120E8A8F3B7F647E00120F687D0B7F30
:100BC000A0120E8A8F397F647E00120F687D0A7F23
:100BD000A0120E8A8F3A7F647E00120F68E537B547
:100BE0003114E534B5300FE536B5330AE535B532A5
:100BF00005D2A4752F01E53B65316003020B1DE5AD
:100C00003865306003020B1DE53A65336003020B63
:100C10001DE53965326003020B1DC2A4F52F020BDE
:010C20001DB6
:100FB400444556494345204F4E0044455649434510
:050FC400204F4646002D
:100E01008F3C8D3D8B3E7F01121002E53F64017BDB
:100E1100FF70067A0F79B480047A0F79BE120F231E
:100E21007FC01210027D027FD0120E8A8F3C7D019D
:100E31007FD0120E8A8F3DE4FD7FD0120E8A8F3E45
:100E4100E53CC4540F2430FF120FF0E53C540F244D
:100E510030FF120FF07F3A120FF0E53DC4540F241A
:100E610030FF120FF0E53D540F2430FF120FF07FD9
:100E71003A120FF0E53EC4540F2430FF120FF0E593
:090E81003E540F2430FF020FF073
:03000000020D7579
:0C0D7500787FE4F6D8FD758142020DBCC9
:100F8600BB010689828A83E0225002E722BBFE0269
:090F9600E32289828A83E493229C
:100D8100020800E493A3F8E493A34003F68001F280
:100D910008DFF48029E493A3F85407240CC8C33373
:100DA100C4540F4420C8834004F456800146F6DF42
:100DB100E4800B0102040810204080900FDDE47EE6
:100DC100019360BCA3FF543F30E509541FFEE49337
:100DD100A360010ECF54C025E060A840B8E493A3FE
:100DE100FAE493A3F8E493A3C8C582C8CAC583CA29
:100DF100F0A3C8C582C8CAC583CADFE9DEE780BEE1
:010FEF000001
:00000001FF
