:100E3D001021313233083435360A373839302A30FB
:020E4D00230D73
:100B6D00C2B3C2B2C2B1C2B0D2B7D2B6D2B5D2B48C
:100B7D00A2B582B482B682B740F67F147E00120D04
:100B8D00F6C2B0D2B1D2B2D2B3A2B582B482B6821D
:100B9D00B74005E4F5188043D2B0C2B1D2B2D2B39A
:100BAD00A2B582B482B682B74005751801802CD2E9
:100BBD00B0D2B1C2B2D2B3A2B582B482B682B740BE
:100BCD00057518028015D2B0D2B1D2B2C2B3A2B59A
:100BDD0082B482B682B7400375180320B405E4F5DC
:100BED0019801620B505751901800E20B6057519E9
:100BFD0002800620B703751903A2B582B482B682AE
:100C0D00B750F6E51825E025E024212519F8E6FF73
:010C1D0022B4
:100DF600D3EF9400EE940040147D7A7C00ED1D70D4
:0D0E0600011CED4C70F7EF1F70E61E80E33D
:010E130022BC
:0B0E7400D2A1D2A0D2A1D2A0C2A02225
:090E7F00C2A1C2A0D2A1D2A0229E
:100DD4007E07EE3395E0C3648094804014C2A1A8DA
:100DE40006EF088002C313D8FC1392A0D2A11E8080
:010DF400E11D
:010DF50022DB
:100D8A00E4FF7E07EE3395E0C3648094804017D277
:100D9A00A130A00DA8067401088002C333D8FC4212
:060DAA0007C2A11E80DE5D
:010DB0002220
:100E1400C2A1D2A0D2A10000000020A004C2A1C39C
:050E240022D2A1D3223F
:070E8800C2A1D2A0D2A122F9
:060D5A008F188D198B1AA1
:100D6000120E74AF18120DD4120E14920020001738
:100D7000AF19120DD4120E14920020000AAF1A12ED
:0A0D80000DD4120E149200020E7F33
:040D18008F188D198A
:100D1C00120E74AF18120DD4120E1492002000286B
:100D2C00AF19120DD4120E14920020001B120E7467
:100D3C00E5184401FF120DD4120E14920020000885
:0D0D4C00120D8A8F1A120E88120E7FAF1A38
:010D59002277
:100E50008F80D2A5C2A6D2A77F027E00120DF6C255
:020E6000A722C7
:100E62008F80C2A5C2A6D2A77F027E00120DF6C253
:020E7200A722B5
:100DB1008B188A19891AAB18AA19A91A120B54FF90
:100DC1006010120E507401251AF51AE43519F5193F
:030DD10080E42299
:100E29007F02120E627F38120E627F0E120E627FEF
:040E390001020E6242
:100CAA00456E7465722050617373636F64650031B9
:100CBA002E50415353574F5244204348414E4745C3
:100CCA000050415353574F524400555044415445E4
:100CDA004400434845434B494E472E2E005041534A
:100CEA0053434F44450049532052494748540057FB
:100CFA00454C434F4D450049532057524F4E4700EC
:0E0D0A0054525920414741494E003132333492
:10080000E4F509F50B78117C00FD7BFF7A0D791476
:10081000FE7F04120B2E120E297B237D027FD01245
:100820000D5A7B597D017FD0120D5A7B50E4FD7F1C
:10083000D0120D5A7F0C120E627D027FD0120D185D
:100840008F157D017FD0120D188F16E4FD7FD01219
:100850000D188F177F80120E62E515C4540F2430D7
:10086000FF120E50E515540F2430FF120E507F3A40
:10087000120E50E516C4540F2430FF120E50E51628
:10088000540F2430FF120E507F3A120E50E517C459
:10089000540F2430FF120E50E517540F2430FF126E
:1008A0000E50E517540FFD7C00C3940174809480B2
:1008B000400ED3ED9405748094805004D2B0800231
:1008C000C2B07F887E13120DF67BFF7A0C79AA12D4
:1008D0000DB17FC0120E62120B6D8F08EF640A70AB
:1008E00066E50B64017060F5097BFF7A0C79B9123B
:1008F0000DB1120B6D8F0AEF640D601DEF6408607F
:10090000187FC0120E62E50A2430FF74112509F821
:10091000A607AF0A120E500509E50A640D70D37FD1
:1009200001120E627BFF7A0C79CB120DB17FC012DF
:100930000E627BFF7A0C79D4120DB17FF47E011226
:100940000DF67F01120E62120B6D8F08EF640870B6
:10095000077F04120E6215097F06120E62E5086415
:100960000D6003020A3B7F01120E627F0C120E62C1
:100970007BFF7A0C79DC120DB17FE87E03120DF655
:100980007F80120E62E4FFEFFD7C00C3940474804C
:100990009480501174112FF8E6FE740C2FF8E6B510
:1009A00006030F80E2ED64044C703F750B017F017C
:1009B000120E627BFF7A0C79E7120DB17FC0120E26
:1009C000627BFF7A0C79F0120DB17FE87E03120D85
:1009D000F67F01120E627BFF7A0C79F9120DB17F5E
:1009E000E87E03120DF67F01804EE4F50B7F0112C5
:1009F0000E627BFF7A0C79E7120DB17FC0120E6296
:100A00007BFF7A0D7901120DB17FF47E01120DF694
:100A10007F01120E627BFF7A0D790A120DB17FF40D
:100A20007E01120DF67F01120E62E4F5097BFF7A5A
:100A30000C79AA120DB17FC0120E62AF08EF640DDF
:100A40007003020839EF64087003020839740C253A
:0E0A500009F8A6087F2A120E5005090208397F
:03000000020C1ED1
:0C0C1E00787FE4F6D8FD758130020C658B
:100A5E00E709F608DFFA8046E709F208DFFA803E7A
:100A6E0088828C83E709F0A3DFFA8032E309F60867
:100A7E00DFFA8078E309F208DFFA807088828C83CF
:100A8E00E309F0A3DFFA806489828A83E0A3F60883
:100A9E00DFFA805889828A83E0A3F208DFFA804C5D
:100AAE0080D280FA80C680D4806980F28033801034
:100ABE0080A680EA809A80A880DA80E280CA80339D
:100ACE0089828A83ECFAE493A3C8C582C8CCC58315
:100ADE00CCF0A3C8C582C8CCC583CCDFE9DEE780E5
:100AEE000D89828A83E493A3F608DFF9ECFAA9F064
:100AFE00EDFB2289828A83ECFAE0A3C8C582C8CCBA
:100B0E00C583CCF0A3C8C582C8CCC583CCDFEADED2
:100B1E00E880DB89828A83E493A3F208DFF980CC34
:100B2E0088F0EF60010E4E60C388F0ED2402B4042D
:100B3E000050B9F582EB2402B4040050AF232345D4
:060B4E008223900AAE7341
:100B5400BB010689828A83E0225002E722BBFE029F
:090B6400E32289828A83E49322D2
:100C2A00020800E493A3F8E493A34003F68001F2D8
:100C3A0008DFF48029E493A3F85407240CC8C333CB
:100C4A00C4540F4420C8834004F456800146F6DF9A
:100C5A00E4800B0102040810204080900E3DE47EDF
:100C6A00019360BCA3FF543F30E509541FFEE4938F
:100C7A00A360010ECF54C025E060A840B8E493A356
:100C8A00FAE493A3F8E493A3C8C582C8CAC583CA81
:100C9A00F0A3C8C582C8CAC583CADFE9DEE780BE39
:010E4F0000A2
:00000001FF
