:0400000049EF03F0D1
:1006000000E721CB6B2D6EEC23EF6F00000E016E27
:100610000F0EC16E000E956E9290898082B013EF1E
:1006200003F015EF03F02BEF03F0012A0150800ACD
:10063000760FD8A01EEF03F020EF03F022EF03F0B7
:10064000000E016E010E0124F66EF76A060EF72207
:100650000800F5CF83FF82B230EF03F032EF03F0F2
:100660000EEF03F0010601BE3AEF03F038EF03F09E
:100670003CEF03F0090E016E010E0124F66EF76ADD
:10068000060EF7220800F5CF83FF0EEF03F000EF10
:1006900000F0000EF86E060EF76E000106EF03F094
:020000040020DA
:08000000FFFFFFFFFFFFFFFF00
:020000040030CA
:0E000000FF071F1FFF8385FF0FC00FE00F409B
:00000001FF
