:0B0A0C00D2A1D2A0D2A1D2A0C2A02291
:090A1700C2A1C2A0D2A1D2A0220A
:100935007E07EE3395E0C3648094804016C2A1A87B
:1009450006EF088002C313D8FC5E24FF92A0D2A153
:030955001E80DF22
:01095800227C
:10090E00E4FF7E07EE3395E0C3648094804017D2F7
:10091E00A130A00DA8067401088002C333D8FC4292
:06092E0007C2A11E80DEDD
:0109340022A0
:1009B300C2A1D2A0D2A10000000020A004C2A1C302
:0509C30022D2A1D322A5
:070A2000C2A1D2A0D2A12265
:0608DE008F0B8D0C8B0D49
:1008E400120A0CAF0B1209351209B392002000173B
:1008F400AF0C1209351209B3920020000AAF0D1291
:0A09040009351209B39200020A1728
:04089C008F0B8D0C25
:1008A000120A0CAF0B1209351209B392002000286E
:1008B000AF0C1209351209B3920020001B120A0C6A
:1008C000E50B4401FF1209351209B392002000081C
:0D08D00012090E8F0D120A20120A17AF0D2B
:0108DD0022F8
:1009DC008F80D2A5C2A6D2A77F027E0012097CC24C
:0209EC00A72240
:1009EE008F80C2A5C2A6D2A77F027E0012097CC24A
:0209FE00A7222E
:100959008B0E8A0F8910AB0EAA0FA91012099AFFE4
:1009690060101209DC74012510F510E4350FF50F3C
:0309790080E422F5
:1009C8007F021209EE7F381209EE7F0E1209EE7FC0
:0409D800010209EE21
:100800001209C87B237D027FD01208DE7B597D014F
:100810007FD01208DE7B50E4FD7FD01208DE7F0C13
:100820001209EE7D027FD012089C8F087D017FD0D7
:1008300012089C8F09E4FD7FD012089C8F0A7F80EC
:100840001209EEE508C4540F2430FF1209DC7F883A
:100850007E1312097CE508540F2430FF1209DC7F57
:10086000887E1312097C7F3A1209DCE509C4540F13
:100870002430FF1209DCE509540F2430FF1209DC93
:100880007F3A1209DCE50AC4540F2430FF1209DC58
:0C089000E50A540F2430FF1209DC8087B9
:10097C00D3EF9400EE940040147D7A7C00ED1D7052
:0D098C00011CED4C70F7EF1F70E61E80E3BC
:01099900223B
:03000000020A00F1
:0C0A0000787FE4F6D8FD75812002080024
:10099A00BB010689828A83E0225002E722BBFE025B
:0909AA00E32289828A83E493228E
:00000001FF
