:1008DE00D3EF9400EE940040147D7A7C00ED1D70F1
:0D08EE00011CED4C70F7EF1F70E61E80E35B
:0108FB0022DA
:1008FC001209477F0C12096D7B687D037FA01208DB
:0D090C00427D037FA012080012095B80FEEF
:0B098B00D2A1D2A0D2A1D2A0C2A02213
:09099600C2A1C2A0D2A1D2A0228C
:1008BC007E07EE3395E0C3648094804014C2A1A8F7
:1008CC0006EF088002C313D8FC1392A0D2A11E809D
:0108DC00E13A
:0108DD0022F8
:10087200E4FF7E07EE3395E0C3648094804017D294
:10088200A130A00DA8067401088002C333D8FC422F
:0608920007C2A11E80DE7A
:01089800223D
:10093200C2A1D2A0D2A10000000020A004C2A1C383
:0509420022D2A1D32226
:07099F00C2A1D2A0D2A122E7
:060842008F098D0A8B0BEB
:1008480012098BAF091208BC120932920020001756
:10085800AF0A1208BC120932920020000AAF0B122C
:0A08680008BC120932920002099642
:040800008F098D0AC5
:1008040012098BAF091208BC120932920020002889
:10081400AF0A1208BC120932920020001B12098B85
:10082400E5094401FF1208BC1209329200200008B5
:0D0834001208728F0B12099F120996AF0B6C
:010841002294
:10095B008F80D2A5C2A6D2A77F027E001208DEC26C
:02096B00A722C1
:10096D008F80C2A5C2A6D2A77F027E001208DEC26A
:02097D00A722AF
:100899008B0C8A0D890EAB0CAA0DA90E120919FF32
:1008A900601012095B7401250EF50EE4350DF50D86
:0308B90080E422B6
:100947007F0212096D7F3812096D7F0E12096D7FC4
:040957000102096D23
:0300000002097F73
:0C097F00787FE4F6D8FD7581200208FCAA
:10091900BB010689828A83E0225002E722BBFE02DC
:09092900E32289828A83E493220F
:00000001FF
