:0400000088EF36F05F
:106CAA00090EC16E8D0EC06EC2801200016EACA2BA
:106CBA0061EF36F063EF36F05CEF36F001C0ADFFFE
:106CCA001200AC98AC9CAC8AAC84AB88AB9CAB8E03
:106CDA00000EB86E810EAF6E000EB06E949C948E4C
:106CEA00120074657374206F662041444320636FF9
:106CFA0064650D0041444320726573756C742069A4
:106D0A00733A200D0004EC0EF66E6C0EF76E000E50
:106D1A00F86E00EE39F010EE24F00900F5CFEEFF20
:106D2A00E550E150FAE1000145EF37F0A6EF36F001
:106D3A0002C0D9FF03C0DAFFDF505BEC36F0024A2B
:106D4A00032A02C0D9FF03C0DAFFDF50D8A4B0EF8C
:106D5A0036F0B2EF36F09DEF36F01200086E08C03A
:106D6A0003F003460346C2500318C30B0318C26E4E
:106D7A00C282C2B2C3EF36F0C5EF36F0BEEF36F0CC
:106D8A00C3CF06F0076AC4CF09F00A6A09500A6E2F
:106D9A00096A06500910046E07500A10056E04C0ED
:106DAA0001F005C002F0120003500410D8B4E0EF5D
:106DBA0036F0E2EF36F006EF37F0010E056EEAEF35
:106DCA0036F0D89003360436052A04AEEFEF36F0D3
:106DDA00F1EF36F0E6EF36F00350015C045002584A
:106DEA00D8A0FAEF36F0FCEF36F000EF37F0035098
:106DFA00015E0450025AD89004320332052EF1EF94
:106E0A0036F001C001F002C002F01200000E066E58
:106E1A00000E056E03500410D8B416EF37F018EFC1
:106E2A0037F040EF37F0010E076E20EF37F0D890B9
:106E3A0003360436072A04AE25EF37F027EF37F07A
:106E4A001CEF37F0D890053606360350015C045023
:106E5A000258D8A033EF37F035EF37F03AEF37F072
:106E6A000350015E0450025A0580D890043203325E
:106E7A00072E27EF37F005C001F006C002F0120016
:106E8A0066EC36F055EC36F0000E936E000E8A6E04
:106E9A0020EE39F010EE10F0110EDBCFE3FFE8061A
:106EAA00FCE220EE4BF010EE22F0100EDBCFE3FFF7
:106EBA00E806FCE2040EB3EC36F001C033F002C07F
:106ECA0034F033C008F034C009F0350E0A6E000EF3
:106EDA000B6E99EC37F0220E026E000E036E9BECDD
:106EEA0036F03550300F5BEC36F03650300F5BEC35
:106EFA0036F03750300F5BEC36F03850300F5BEC21
:106F0A0036F00D0E5BEC36F01A0E0F6E5E0E0E6E3C
:106F1A006E0EE82EFED70E2EFCD70F2EFAD700D013
:106F2A005FEF37F000EF00F008C001F009C002F08F
:106F3A00030E046EE80E036E0BEC37F001500AC024
:106F4A00D9FF0BC0DAFFDF6E08C001F009C002F0FA
:106F5A00030E046EE80E036ED9EC36F001C00CF095
:106F6A0002C00DF020EE01F00A50D9260B50DA22A9
:106F7A000CC001F00DC002F0000E046E640E036E28
:106F8A000BEC37F00150DF6E0CC001F00DC002F0BF
:106F9A00000E046E640E036ED9EC36F001C00CF0DC
:106FAA0002C00DF020EE02F00A50D9260B50DA2268
:106FBA000CC001F00DC002F0000E046E0A0E036E42
:106FCA000BEC37F00150DF6E0CC001F00DC002F07F
:106FDA00000E046E0A0E036ED9EC36F001C00CF0F6
:106FEA0002C00DF020EE03F00A50D9260B50DA2227
:066FFA000CC0DFFF1200D5
:020000040020DA
:08000000FFFFFFFFFFFFFFFF00
:020000040030CA
:0E000000FF021F1EFF0181FF0FC00FE00F4027
:00000001FF
