:100800001208B07F0C1208D6E4F50BD3E50B943B2D
:100810007480948050F27F801208D6E50B75F00A40
:10082000842430FF1208C47F811208D6E50B75F0CE
:100830000A84E5F02430FF1208C47F647E001208A9
:0A0840004A7F011208D6050B80C1A3
:10084A00D3EF9400EE940040207DFA7C00ED1D70F9
:10085A00011C144C70F7FC7DF7ED1D70011C144C43
:09086A0070F7EF1F70DA1E80D751
:010873002262
:1008C4008F80D2A5C2A6D2A77F027E0012084AC298
:0208D400A72259
:100874008B088A09890AAB08AA09A90A120897FFF2
:1008840060101208C47401250AF50AE43509F50953
:0308940080E422DB
:1008D6008F80C2A5C2A6D2A77F027E0012084AC296
:0208E600A72247
:1008B0007F021208D67F381208D67F0E1208D67F24
:0408C000010208D653
:030000000208E80B
:0C08E800787FE4F6D8FD75810B02080053
:10089700BB010689828A83E0225002E722BBFE025F
:0908A700E32289828A83E4932292
:00000001FF
