:100E5500120E41120D368F21E5212430FF120D9817
:020E650080F11A
:100DF400D3EF9400EE940040207DFA7C00ED1D704A
:100E0400011C144C70F7FC7DF7ED1D70011C144C93
:090E140070F7EF1F70DA1E80D7A1
:010E1D0022B2
:040B81008E118F1230
:100B8500E4F514F515F516F517C3E51164809480A1
:100B950050107CFF7DFF120AD68E118F127F2D1209
:100BA5000D98E512451170057F30120D98D3E512A9
:100BB5009400E511648094804030AE11AF127C0042
:100BC5007D0A120AE88D13AE16AF177C007D0A1256
:100BD5000AD6EF2513F517EC3EF516AE11AF121236
:100BE5000AE88E118F12051480C3D3E5179400E52A
:100BF50016648094804028AE16AF177C007D0A12DB
:100C05000AE88D13E5132430FF120D980515AE166D
:100C1500AF177C007D0A120AE88E168F1780CBE588
:0E0C250014651560097F30120D98051580F1D9
:010C3300229E
:080CC0008F0B8E0A8D098C08D0
:100CC800120A3C8F10EF3395E0FEC3648094805085
:100CD8000E7CFF7DFF120AD68F107F2D120D98AF64
:100CE80010EF3395E0FE120B817F2E120D98AC1099
:100CF800EC120A08A804A905AA06AB07AF0BAE0AAE
:100D0800AD09AC081208038F0F8E0E8D0D8C0CE404
:100D1800FBFA792078411208F88F0F8E0E8D0D8C12
:0E0D28000C120A3C8F10E5102430FF020D98CB
:100D98008F22E522C4540FF580D284C285D2867F83
:100DA800027E00120DF4C286E522540FF580D2842B
:0E0DB800C285D2867F027E00120DF4C2862212
:100E1E008B1E8A1F8920AB1EAA1FA920120ABDFF96
:100E2E006010120D9874012520F520E4351FF51F72
:030E3E0080E4222B
:100DC6008F22E522C4540FF580C284C285D2867F65
:100DD600027E00120DF4C286E522540FF580C2840D
:0E0DE600C285D2867F027E00120DF4C28622E4
:100E41007F02120DC67F28120DC67F0E120DC67FBE
:040E510001020DC6C7
:080E6700061801020304050650
:100D3600C2B1C2B0D2B6D2B5D2B4A2B582B482B66E
:100D460040F87F147E00120DF4C2B0D2B1A2B58273
:100D5600B482B64005E4F522800FD2B0C2B1A2B586
:100D660082B482B6400375220120B405E4F52380DF
:100D76000B20B5057523018003752302A2B582B445
:100D860082B650F8E52275F003A424182523F8E668
:010D9600FF5D
:010D97002239
:10080000020AA8E86480F8E933E83360110460F074
:10081000ED33EC337009E8FCE9FDEAFEEBFF22045E
:1008200060DED3EB9FEA9EE99DE8C2E78CF0C2F759
:1008300095F0400CE8CCF8E9CDF9EACEFAEBCFFB25
:10084000120A7385D0F05804700320D5B3E8047001
:10085000075002B2D5020AB292D5EC0460F7E4CC9C
:10086000C0E0C398F8603B94186008400DD0E0FBEE
:10087000020A8AE4FBFAC9FC8028E830E406E4C9ED
:10088000FBE4CAFCE830E305E4C9CACBFCE8540742
:100890006010F8C3E913F9EA13FAEB13FBEC13FC4D
:1008A000D8F130F52FC3E49CFCEF9BFFEE9AFEEDF0
:1008B00099FDD0E0FBEF4E4D4C701222DB03020A93
:1008C000AFEC2CFCEF33FFEE33FEED33FDED30E704
:1008D000EB020A8AEF2BFFEE3AFEED39FDD0E0FB8A
:1008E00050130BBB0003020AB2ED13FDEE13FEEF33
:0808F00013FFEC13FC020A8A5D
:1008F800EC4D6011E8497017ED33EC3304600DE4FA
:10090800FCFFFEFD22E933E8330470F8020AA8125E
:100918000A7358046009E4CC24815006285009025F
:100928000AB2284003020AAFC0E0EB4A7044B9801B
:1009380006D0E0FB020A9EEF4E701CBD8008EBFF5C
:10094800EAFEE9FD80EBE98DF0A4FEE5F00209E19D
:10095800E9CDF9EAFEEBFFEF89F0A4FCE5F0CE89DA
:10096800F0A42EFFE435F0CD89F0A42DFEE435F097
:100978008067EF4E7005BD80D780C3EF8BF0A4ACC5
:10098800F0EE8BF0A42CFCE435F0F8EF8AF0A42C00
:10099800E5F038FCE433CB8DF0A42CFCE5F03BF813
:1009A800EE8AF0A42CFCE5F038F8E433CF89F0A403
:1009B8002CFCE5F038CF3400CE89F0A42FFFE5F009
:1009C8003EFEE433C98DF0A42EFEE5F039CD8AF061
:1009D800A42FFFE5F03EFEE43DFD33D0E0FB5007D9
:1009E8000BBB000F020AB2EC2CFCEF33FFEE33FE18
:0609F800ED33FD020A8A46
:1009FE0075F020800E75F010800575F0087D007E74
:100A0E00007F003392D530D503120B1EEC3340100D
:100A1E00EF33FFEE33FEED33FDEC33FCD5F0ED227C
:0E0A2E00E5F0247EA2D513CC92E7CDCEFF22B8
:100A3C00EDD2E7CD33EC3392D524814006E4FFFEB2
:100A4C00FDFC22FCE4CFCECDCC24E0501174FF8011
:100A5C00EDC3CC13CCCD13CDCE13CECF13CF0470AE
:070A6C00F030D5DE020B1E85
:100A7300E9D2E7C933E833F892D5EDD2E7CD33ECC9
:070A830033FC5002B2D52242
:100A8A00EC30E7100FBF000C0EBE00080DBD0004CD
:100A9A000BEB6014A2D5EB13FCED92E7FD2274FF79
:100AAA00FCFDFEFF22E480F8A2D574FF13FC7D80D2
:030ABA00E480EFE6
:03000000020C34BB
:0C0C3400787FE4F6D8FD758123020C7B6C
:100ABD00BB010689828A83E0225002E722BBFE0237
:090ACD00E32289828A83E493226A
:100AD600EF8DF0A4A8F0CF8CF0A428CE8DF0A42E34
:020AE600FE22EE
:100AE800C2D5EC30E709B2D5E4C39DFDE49CFCEE29
:100AF80030E715B2D5E4C39FFFE49EFE120B2CC36A
:100B0800E49DFDE49CFC8003120B2C30D507C3E464
:060B18009FFFE49EFE2297
:0E0B1E00C3E49FFFE49EFEE49DFDE49CFC22E8
:100C4000020E55E493A3F8E493A34003F68001F267
:100C500008DFF48029E493A3F85407240CC8C333B5
:100C6000C4540F4420C8834004F456800146F6DF84
:100C7000E4800B0102040810204080900E67E47E9F
:100C8000019360BCA3FF543F30E509541FFEE49379
:100C9000A360010ECF54C025E060A840B8E493A340
:100CA000FAE493A3F8E493A3C8C582C8CAC583CA6B
:100CB000F0A3C8C582C8CAC583CADFE9DEE780BE23
:010E6F000082
:100B2C00BC000BBE0029EF8DF084FFADF022E4CCAD
:100B3C00F875F008EF2FFFEE33FEEC33FCEE9DEC76
:100B4C00984005FCEE9DFE0FD5F0E9E4CEFD22EDBC
:100B5C00F8F5F0EE8420D21CFEADF075F008EF2F06
:100B6C00FFED33FD4007985006D5F0F222C398FDF7
:050B7C000FD5F0EA2294
:00000001FF
