:100870007F807E25120800E4F508C3E508941A7409
:1008800080948050F2E5082441FF12089D050880FD
:01089000E97E
:10080000759850438920EF8EF012084308241C206D
:1008100008292580082B3840083070800835E10011
:1008200000000829758DFC80178012758DFE8010E0
:10083000758DFF800B758DFFE4F5878003758DFD49
:03084000D28E2233
:08089D008F9930B5FDC2B522B0
:0300000002089162
:0C089100787FE4F6D8FD7581080208703D
:10084300D083D082F8E4937012740193700DA3A344
:1008530093F8740193F5828883E473740293B5F07B
:0D086300067403936860E9A3A3A3A380D8E3
:00000001FF
