:0E090900750B40E4F50C1209D77F0C1209FDA6
:10091700750D40E4FD7F02120897402B050DE4FD9D
:100927007F0212089750F7E50C641070057FC0121C
:1009370009FDE50C642070087F021209FDE4F50C3F
:0E094700AF0D1209EB050CE50DC3945A40C527
:0209550080C060
:10095700D3EF9400EE940040207DFA7C00ED1D70EB
:10096700011C144C70F7FC7DF7ED1D70011C144C35
:0909770070F7EF1F70DA1E80D743
:010980002254
:10080000EF14602E14604C14606A24036003020825
:1008100096EB6401700DA80504088002C333D8FC70
:10082000428022A8057401088002C333D8FCF45228
:100830008022EB6401700DA80504088002C333D840
:10084000FC429022A8057401088002C333D8FCF44E
:10085000529022EB6401700DA80504088002C33396
:10086000D8FC42A022A8057401088002C333D8FC3A
:10087000F452A022EB6401700DA80504088002C3A5
:1008800033D8FC42B022AF05A8077401088002C328
:0708900033D8FCF452B02242
:1009A400EF14600D14600D14600D2403700B8D8022
:0A09B400228D90228DA0228DB0222A
:10089700EF14602214603714604C24037060A805BD
:1008A700E580088002C313D8FC30E0047F01800292
:1008B7007F00AE078048A805E590088002C313D8DB
:1008C700FC30E0047F0180027F00AE078030A8057E
:1008D700E5A0088002C313D8FC30E0047F01800242
:1008E7007F00AE078018AF05A807E5B0088002C3F0
:1008F70013D8FC30E0047F0180027F00AE07EE24AE
:01090700FFF0
:0109080022CC
:1009EB008F80D2A5C2A6D2A77F027E00120957C262
:0209FB00A72231
:100981008B088A09890AAB08AA09A90A1209BEFFBC
:1009910060101209EB7401250AF50AE43509F5091D
:0309A10080E422CD
:1009FD008F80C2A5C2A6D2A77F027E00120957C260
:020A0D00A7221E
:1009D7007F021209FD7F381209FD7F0E1209FD7F84
:0409E700010209FD03
:03000000020A0FE2
:0C0A0F00787FE4F6D8FD7581200209090B
:1009BE00BB010689828A83E0225002E722BBFE0237
:0909CE00E32289828A83E493226A
:00000001FF
